{
  "_format": "hh-sol-artifact-1",
  "contractName": "FarmTrace",
  "sourceName": "src/contracts/FarmTrace.sol",
  "abi": [
    {
      "anonymous": false,
      "inputs": [
        {
          "indexed": true,
          "internalType": "string",
          "name": "seasonId",
          "type": "string"
        },
        {
          "indexed": false,
          "internalType": "string",
          "name": "farmId",
          "type": "string"
        }
      ],
      "name": "SeasonCreated",
      "type": "event"
    },
    {
      "anonymous": false,
      "inputs": [
        {
          "indexed": true,
          "internalType": "string",
          "name": "seasonId",
          "type": "string"
        },
        {
          "indexed": false,
          "internalType": "string",
          "name": "data",
          "type": "string"
        }
      ],
      "name": "SeasonUpdated",
      "type": "event"
    },
    {
      "inputs": [
        {
          "internalType": "string",
          "name": "_seasonId",
          "type": "string"
        },
        {
          "internalType": "string",
          "name": "_farmId",
          "type": "string"
        },
        {
          "internalType": "string",
          "name": "_initialData",
          "type": "string"
        }
      ],
      "name": "createSeason",
      "outputs": [],
      "stateMutability": "nonpayable",
      "type": "function"
    },
    {
      "inputs": [
        {
          "internalType": "string",
          "name": "_seasonId",
          "type": "string"
        }
      ],
      "name": "getSeason",
      "outputs": [
        {
          "components": [
            {
              "internalType": "string",
              "name": "seasonId",
              "type": "string"
            },
            {
              "internalType": "string",
              "name": "farmId",
              "type": "string"
            },
            {
              "internalType": "string",
              "name": "initialData",
              "type": "string"
            },
            {
              "internalType": "uint256",
              "name": "createdAt",
              "type": "uint256"
            },
            {
              "components": [
                {
                  "internalType": "string",
                  "name": "data",
                  "type": "string"
                },
                {
                  "internalType": "uint256",
                  "name": "timestamp",
                  "type": "uint256"
                }
              ],
              "internalType": "struct FarmTrace.UpdateEntry[]",
              "name": "updateHistory",
              "type": "tuple[]"
            }
          ],
          "internalType": "struct FarmTrace.SeasonRecord",
          "name": "",
          "type": "tuple"
        }
      ],
      "stateMutability": "view",
      "type": "function"
    },
    {
      "inputs": [
        {
          "internalType": "string",
          "name": "",
          "type": "string"
        }
      ],
      "name": "seasons",
      "outputs": [
        {
          "internalType": "string",
          "name": "seasonId",
          "type": "string"
        },
        {
          "internalType": "string",
          "name": "farmId",
          "type": "string"
        },
        {
          "internalType": "string",
          "name": "initialData",
          "type": "string"
        },
        {
          "internalType": "uint256",
          "name": "createdAt",
          "type": "uint256"
        }
      ],
      "stateMutability": "view",
      "type": "function"
    },
    {
      "inputs": [
        {
          "internalType": "string",
          "name": "_seasonId",
          "type": "string"
        },
        {
          "internalType": "string",
          "name": "_data",
          "type": "string"
        }
      ],
      "name": "updateSeason",
      "outputs": [],
      "stateMutability": "nonpayable",
      "type": "function"
    }
  ],
  "bytecode": "0x608060405234801561001057600080fd5b506112bb806100206000396000f3fe608060405234801561001057600080fd5b506004361061004c5760003560e01c80636db84a1414610051578063787f0b051461006d5780637dec56e0146100a0578063f1858451146100d0575b600080fd5b61006b600480360381019061006691906109fb565b6100ec565b005b61008760048036038101906100829190610aa2565b610260565b6040516100979493929190610b83565b60405180910390f35b6100ba60048036038101906100b59190610aa2565b61043e565b6040516100c79190610dc0565b60405180910390f35b6100ea60048036038101906100e59190610de2565b610731565b005b600080846040516100fd9190610e96565b9081526020016040518091039020600001805461011990610edc565b90501461015b576040517f08c379a000000000000000000000000000000000000000000000000000000000815260040161015290610f59565b60405180910390fd5b8260008460405161016c9190610e96565b908152602001604051809103902060000190816101899190611125565b508160008460405161019b9190610e96565b908152602001604051809103902060010190816101b89190611125565b50806000846040516101ca9190610e96565b908152602001604051809103902060020190816101e79190611125565b50426000846040516101f99190610e96565b9081526020016040518091039020600301819055508260405161021c9190610e96565b60405180910390207f4c35dc31fdd71ce62e4c888f6f55a7233de52e0ceb6ac66116ca84ec61cdc14d8360405161025391906111f7565b60405180910390a2505050565b60008180516020810182018051848252602083016020850120818352809550505050505060009150905080600001805461029990610edc565b80601f01602080910402602001604051908101604052809291908181526020018280546102c590610edc565b80156103125780601f106102e757610100808354040283529160200191610312565b820191906000526020600020905b8154815290600101906020018083116102f557829003601f168201915b50505050509080600101805461032790610edc565b80601f016020809104026020016040519081016040528092919081815260200182805461035390610edc565b80156103a05780601f10610375576101008083540402835291602001916103a0565b820191906000526020600020905b81548152906001019060200180831161038357829003601f168201915b5050505050908060020180546103b590610edc565b80601f01602080910402602001604051908101604052809291908181526020018280546103e190610edc565b801561042e5780601f106104035761010080835404028352916020019161042e565b820191906000526020600020905b81548152906001019060200180831161041157829003601f168201915b5050505050908060030154905084565b610446610872565b6000826040516104569190610e96565b90815260200160405180910390206040518060a001604052908160008201805461047f90610edc565b80601f01602080910402602001604051908101604052809291908181526020018280546104ab90610edc565b80156104f85780601f106104cd576101008083540402835291602001916104f8565b820191906000526020600020905b8154815290600101906020018083116104db57829003601f168201915b5050505050815260200160018201805461051190610edc565b80601f016020809104026020016040519081016040528092919081815260200182805461053d90610edc565b801561058a5780601f1061055f5761010080835404028352916020019161058a565b820191906000526020600020905b81548152906001019060200180831161056d57829003601f168201915b505050505081526020016002820180546105a390610edc565b80601f01602080910402602001604051908101604052809291908181526020018280546105cf90610edc565b801561061c5780601f106105f15761010080835404028352916020019161061c565b820191906000526020600020905b8154815290600101906020018083116105ff57829003601f168201915b505050505081526020016003820154815260200160048201805480602002602001604051908101604052809291908181526020016000905b82821015610722578382906000526020600020906002020160405180604001604052908160008201805461068790610edc565b80601f01602080910402602001604051908101604052809291908181526020018280546106b390610edc565b80156107005780601f106106d557610100808354040283529160200191610700565b820191906000526020600020905b8154815290600101906020018083116106e357829003601f168201915b5050505050815260200160018201548152505081526020019060010190610654565b50505050815250509050919050565b600080836040516107429190610e96565b9081526020016040518091039020600001805461075e90610edc565b9050116107a0576040517f08c379a000000000000000000000000000000000000000000000000000000000815260040161079790611265565b60405180910390fd5b6000826040516107b09190610e96565b9081526020016040518091039020600401604051806040016040528083815260200142815250908060018154018082558091505060019003906000526020600020906002020160009091909190915060008201518160000190816108149190611125565b506020820151816001015550508160405161082f9190610e96565b60405180910390207f3b436fe10c77d6c4a0b4e8ee59a9330e962a3437268960f12d91b1da2b14ad838260405161086691906111f7565b60405180910390a25050565b6040518060a0016040528060608152602001606081526020016060815260200160008152602001606081525090565b6000604051905090565b600080fd5b600080fd5b600080fd5b600080fd5b6000601f19601f8301169050919050565b7f4e487b7100000000000000000000000000000000000000000000000000000000600052604160045260246000fd5b610908826108bf565b810181811067ffffffffffffffff82111715610927576109266108d0565b5b80604052505050565b600061093a6108a1565b905061094682826108ff565b919050565b600067ffffffffffffffff821115610966576109656108d0565b5b61096f826108bf565b9050602081019050919050565b82818337600083830152505050565b600061099e6109998461094b565b610930565b9050828152602081018484840111156109ba576109b96108ba565b5b6109c584828561097c565b509392505050565b600082601f8301126109e2576109e16108b5565b5b81356109f284826020860161098b565b91505092915050565b600080600060608486031215610a1457610a136108ab565b5b600084013567ffffffffffffffff811115610a3257610a316108b0565b5b610a3e868287016109cd565b935050602084013567ffffffffffffffff811115610a5f57610a5e6108b0565b5b610a6b868287016109cd565b925050604084013567ffffffffffffffff811115610a8c57610a8b6108b0565b5b610a98868287016109cd565b9150509250925092565b600060208284031215610ab857610ab76108ab565b5b600082013567ffffffffffffffff811115610ad657610ad56108b0565b5b610ae2848285016109cd565b91505092915050565b600081519050919050565b600082825260208201905092915050565b60005b83811015610b25578082015181840152602081019050610b0a565b60008484015250505050565b6000610b3c82610aeb565b610b468185610af6565b9350610b56818560208601610b07565b610b5f816108bf565b840191505092915050565b6000819050919050565b610b7d81610b6a565b82525050565b60006080820190508181036000830152610b9d8187610b31565b90508181036020830152610bb18186610b31565b90508181036040830152610bc58185610b31565b9050610bd46060830184610b74565b95945050505050565b600082825260208201905092915050565b6000610bf982610aeb565b610c038185610bdd565b9350610c13818560208601610b07565b610c1c816108bf565b840191505092915050565b610c3081610b6a565b82525050565b600081519050919050565b600082825260208201905092915050565b6000819050602082019050919050565b60006040830160008301518482036000860152610c7f8282610bee565b9150506020830151610c946020860182610c27565b508091505092915050565b6000610cab8383610c62565b905092915050565b6000602082019050919050565b6000610ccb82610c36565b610cd58185610c41565b935083602082028501610ce785610c52565b8060005b85811015610d235784840389528151610d048582610c9f565b9450610d0f83610cb3565b925060208a01995050600181019050610ceb565b50829750879550505050505092915050565b600060a0830160008301518482036000860152610d528282610bee565b91505060208301518482036020860152610d6c8282610bee565b91505060408301518482036040860152610d868282610bee565b9150506060830151610d9b6060860182610c27565b5060808301518482036080860152610db38282610cc0565b9150508091505092915050565b60006020820190508181036000830152610dda8184610d35565b905092915050565b60008060408385031215610df957610df86108ab565b5b600083013567ffffffffffffffff811115610e1757610e166108b0565b5b610e23858286016109cd565b925050602083013567ffffffffffffffff811115610e4457610e436108b0565b5b610e50858286016109cd565b9150509250929050565b600081905092915050565b6000610e7082610aeb565b610e7a8185610e5a565b9350610e8a818560208601610b07565b80840191505092915050565b6000610ea28284610e65565b915081905092915050565b7f4e487b7100000000000000000000000000000000000000000000000000000000600052602260045260246000fd5b60006002820490506001821680610ef457607f821691505b602082108103610f0757610f06610ead565b5b50919050565b7f536561736f6e2065786973747300000000000000000000000000000000000000600082015250565b6000610f43600d83610af6565b9150610f4e82610f0d565b602082019050919050565b60006020820190508181036000830152610f7281610f36565b9050919050565b60008190508160005260206000209050919050565b60006020601f8301049050919050565b600082821b905092915050565b600060088302610fdb7fffffffffffffffffffffffffffffffffffffffffffffffffffffffffffffffff82610f9e565b610fe58683610f9e565b95508019841693508086168417925050509392505050565b6000819050919050565b600061102261101d61101884610b6a565b610ffd565b610b6a565b9050919050565b6000819050919050565b61103c83611007565b61105061104882611029565b848454610fab565b825550505050565b600090565b611065611058565b611070818484611033565b505050565b5b818110156110945761108960008261105d565b600181019050611076565b5050565b601f8211156110d9576110aa81610f79565b6110b384610f8e565b810160208510156110c2578190505b6110d66110ce85610f8e565b830182611075565b50505b505050565b600082821c905092915050565b60006110fc600019846008026110de565b1980831691505092915050565b600061111583836110eb565b9150826002028217905092915050565b61112e82610aeb565b67ffffffffffffffff811115611147576111466108d0565b5b6111518254610edc565b61115c828285611098565b600060209050601f83116001811461118f576000841561117d578287015190505b6111878582611109565b8655506111ef565b601f19841661119d86610f79565b60005b828110156111c5578489015182556001820191506020850194506020810190506111a0565b868310156111e257848901516111de601f8916826110eb565b8355505b6001600288020188555050505b505050505050565b600060208201905081810360008301526112118184610b31565b905092915050565b7f536561736f6e206e6f7420666f756e6400000000000000000000000000000000600082015250565b600061124f601083610af6565b915061125a82611219565b602082019050919050565b6000602082019050818103600083015261127e81611242565b905091905056fea264697066735822122074aa93f8f55e05b164bb37c8b8bd0e1acb16d5e42a514779755c053de2b0d5cd64736f6c63430008140033",
  "linkReferences": {},
  "deployedLinkReferences": {}
}